:100000000C9495020C94DC020C94DC020C94DC023F
:100010000C9476150C94DC020C94DC020C94DC023B
:100020000C94DC020C94DC020C945E270C943228B5
:100030000C9467220C94DC020C94DC020C94DC021D
:100040000C94DC020C94DC020C94DC020C94DC02B8
:100050000C94DC020C94BE220C94DC020C94DC02A6
:100060000C94DC020C94DC020C94DC020C94DC0298
:100070000C94DC020C94DC020C94DC020C94DC0288
:100080000C94DC020C94DC020C94DC020C94DC0278
:100090000C94DC020C94DC020C94DC020C94DC0268
:1000A0000C94DC020C94DC020C94DC023A003B0061
:1000B0003D005F0029002800055701570800150082
:1000C000170004621600070009710A000057035761
:1000D0000600190005000000675D4C002800015172
:1000E000130012000C680257075734720F000E00FD
:1000F0000D740B000457370036001000110000008B
:10010000685D2A002C0002511E001F002000210003
:100110002200E1005700560055005400665D35008E
:10012000655D310039000000675D4C00280001006A
:1001300027002600250024002300330030002F0074
:10014000645D635DE50037003600000000000000DC
:10015000685D2A002C0001001D001B00ED00060058
:100160001900E000EF00EE00F0003F003A003B0015
:100170003C003D003E000000675D4C00280001008F
:10018000005CF2005200F1000900E1004F00510054
:100190005000400045004400430042004100000080
:1001A000685D2A002C00010014621A000800150086
:1001B000170004001600070009000A001D001B00BC
:1001C0000600190005710000675D28004C002B0037
:1001D0001300120009570A57065734720F000E0019
:1001E00008570B00380037003600100011000000DF
:1001F000685D2A002C000B571D001B000000060044
:100200001900E00000005600695D000000000000D9
:10021000655D6A5D00000000675D4C0028002B00F2
:1002200000000000520000000000E1004F005100FB
:10023000500000000000000000000000000000006E
:10024000685D2A002C000B57000000000000000031
:100250002A2B280000000000000000000000000021
:1002600000000029000000002C1E3420212224342C
:100270002627252E362D3738271E1F2021222324FE
:1002800025263333362E37381F0405060708090A9A
:100290000B0C0D0E0F101112131415161718191A36
:1002A0001B1C1D2F3130232D350405060708090AB4
:1002B0000B0C0D0E0F101112131415161718191A16
:1002C0001B1C1D2F3130354C0000000000000000C9
:1002D000000000000000000000000000000000001E
:1002E0000000000000000000000000007E0F00D4AD
:1002F000FFFFFFC7000000780001010101010101BB
:1003000001010202020202020202020303030303CA
:100310000303030404040404040405050505050699
:100320000606060607070707070808080809090957
:10033000090A0A0A0B0B0B0C0C0C0D0D0D0E0E0E00
:100340000F0F0F1010111111121213131414151591
:1003500016161717181819191A1A1B1B1C1D1D1E03
:100360001E1F202021222223242425262627282957
:10037000292A2B2C2D2D2E2F303132323334353685
:100380003738393A3B3C3D3E3F4041424344454685
:100390004748494A4C4D4E4F505153545556585961
:1003A0005A5B5D5E5F616264656668696B6C6D6F08
:1003B0007072737577787A7B7D7E8082838587887B
:1003C0008A8C8E8F91939596989A9C9EA0A2A3A5B5
:1003D000A7A9ABADAFB1B3B5B7BABCBEC0C2C4C6B6
:1003E000C9CBCDCFD1D4D6D8DBDDDFE2E4E7E9EB72
:1003F000EEF0F3F5F8FAFDFF1003430068006F001C
:10040000630044006F00780000001203610079006F
:10041000640065006E00760069007300000004034C
:10042000090409023B00020100A0FA0904000001CE
:10043000030101000921110100012240000705818B
:100440000308000A0904010001030000000921114A
:10045000010001227B000705820320000A1201101F
:100460000100000008EDFE603001000102000105FE
:10047000010902A10185020901A10005091901294B
:10048000081500250195087501810205010930094B
:10049000311581257F95027508810609381581255A
:1004A0007F950175088106050C0A38021581257FA4
:1004B000950175088106C0C005010980A101850369
:1004C00019012AB700150126B700950175108100A2
:1004D000C0050C0901A101850419012AA00215011A
:1004E00026A002950175108100C005010906A10131
:1004F000050719E029E71500250195087501810216
:100500009501750881010507190029FF150026FFCF
:1005100000950675088100050819012905950575DE
:10052000019102950175039101C011241FBECFEF07
:10053000DAE0DEBFCDBF04B603FE27C08091EB0337
:100540009091EC03A091ED03B091EE038730904BB6
:10055000A740B04BD1F41092EB031092EC03109231
:10056000ED031092EE0314BE84B7877F84BF0FB6ED
:10057000F894A89580916000886180936000109243
:1005800060000FBEE0E0F8E3099512E0A0E0B1E002
:10059000ECE3F5E502C005900D92AA3DB107D9F74D
:1005A00023E0AAEDB2E001C01D92AB3EB207E1F735
:1005B0000E949A240C946C2A0C940000CF93DF9331
:1005C000EC018881813041F48CE10E942A18CE012F
:1005D000DF91CF910C9438138330C8F383E00E94ED
:1005E000AB1EF5CFCF93DF93EC018881813041F4CE
:1005F0008CE10E942A18CE01DF91CF910C94381320
:100600008330C8F383E00E94CC1EF5CF83569D450E
:100610008830910570F4FC01E259F54DDB0112962A
:100620009C910C941E2A992321F086EB90E00E9465
:10063000C20581E008959923E1F384EB90E0F7CFC0
:100640009923B9F382EB90E0F2CF992391F380EBF9
:1006500090E0EDCF992369F38EEA90E0E8CF9923FB
:1006600041F38CEA90E0E3CF992319F38091DD0206
:100670008F5F8093DD02909132028917D0F2109241
:10068000DD02D7CF9923A9F28091DC028F5F80939E
:10069000DC0290913202891760F21092DC02C9CF1D
:1006A000CF92DF92EF92FF926B017C010E94C50511
:1006B0008230D9F088F4882311F08130D9F040914C
:1006C00031026FEF8AEA0E94910EC701B601FF90D6
:1006D000EF90DF90CF900895833089F0843079F7E0
:1006E000409131026FEF80E0EECF409131026FEF29
:1006F0008FEBE9CF409131026FEF85E5E4CF409178
:1007000031026FEF8AE0DFCF609178037091790357
:1007100080917A0390917B030C945003882321F0FD
:100720008130C1F080E008958091DD02882359F086
:100730008130C1F78FE491E0611102C080E591E062
:100740000E941F04EFCF8FE490E06111F9CF80E5A4
:1007500090E0F6CF8091DC02882349F0813011F7D8
:1007600089EA611101C08AEA0E942A18DBCF89EF69
:1007700090E0662329F38AEF90E0E2CFCF93DF93F6
:100780009C013A9521153F4168F5EC01CC27D170C9
:10079000DC01AA27B270AC01442754709C012227C7
:1007A000387094FF11C080E1CD2B09F480E0AB2BB1
:1007B00009F08062452B09F08064232B09F08068E2
:1007C000FB01DF91CF91099481E0CD2B09F480E00A
:1007D000AB2B09F08260452B09F08460232B81F359
:1007E0008860EECFDF91CF910895CF93DF93EC0136
:1007F000805E9109089720F06FE87AE1209711F464
:1008000062E378E1CE010E94BE038C2FDF91CF918D
:100810000C949617CF93DF93EC010E94E417CE015E
:10082000805E9109089720F066E97AE1209711F43B
:1008300069E378E1CE01DF91CF910C94BE03CF93B1
:10084000DF93EC010E94F503CE01DF91CF910C9470
:100850000A0481E008950C94060308950C942D0475
:100860001F93CF93DF9300D000D00F92CDB7DEB7A8
:1008700049835A836B833091260389819A81311190
:100880001DC06623B9F02223A9F00E949E1F182FD5
:10089000682F89819A810E94471F69817A81812FFF
:1008A0000F900F900F900F900F90DF91CF911F91AD
:1008B0000C9425060E94751F182FEFCF0E949E1FD3
:1008C00069817A81EDCFFC01262F408151816281BF
:1008D000738184810C943004CF93DF93EC0160E04A
:1008E0000E946304BE01DF91CF910C942E040E94FC
:1008F00031080C9456080E941F140C94590808954E
:100900000E94B31A0E947F042FEF84E39CE02150E1
:1009100080409040E1F700C000000C9423230F9327
:100920001F93CF93DF938C0161E00E946304EC017D
:10093000B8010E947D13B801CE010E942B048823C8
:1009400009F441C0B801CE010E94C5138823D9F132
:10095000B801CE010E9431118823A9F1B801CE015E
:100960000E948311882379F1B801CE010E94A6125A
:10097000882349F1B801CE010E94100F882319F194
:10098000F8018281882361F0CB35FDE5DF0721F195
:1009900070F4C115ECE5DE07A1F0CF3DDC45C9F0F0
:1009A000C801DF91CF911F910F910C942904CC3590
:1009B0008DE5D807A1F0CD35DD4591F70E944520A2
:1009C000EFCF0E94800480E0DF91CF911F910F91C3
:1009D00008950E94BB21F7CF0E944E20E1CF0E94D4
:1009E0005120DECFDF92EF92FF920F931F93CF93B0
:1009F000DF93E82FF0E0E85BFD4FD490282F269599
:100A00002695269530E0F901E851FD4F0491877055
:100A100010E0082E02C0159507950A94E2F70170C0
:100A20001127F901E852FD4FE490F12C082E02C085
:100A3000F594E7940A94E2F791E0E922FF24F901A2
:100A4000E853FD4FC491D0E002C0D595C7958A9573
:100A5000E2F7C170DD270115110519F081EE0E9442
:100A60009617E114F10419F086EE0E9496178D2D69
:100A70000E942A18EF2819F086EE0E94E417012B35
:100A800019F081EE0E94E417CD2B51F08CE2DF913A
:100A9000CF911F910F91FF90EF90DF900C942A1847
:100AA000DF91CF911F910F91FF90EF90DF9008950C
:100AB000EF92FF920F931F93CF93DF938C01F62E4B
:100AC0008AE0E82EF8018491882309F454C081302B
:100AD00009F04DC0E8012196FE018491813091F426
:100AE0002196FE0184910E942A188E010F5F1F4FEC
:100AF0008F2D815038F3EFE9FFE03197F1F700C017
:100B00000000F7CF823039F4E8012296FE0184918B
:100B10000E949617EACF833039F4E8012296FE014D
:100B200084910E94E417E1CF8430F9F6E80122961F
:100B3000FE01249190E080E0FE0131962053330BBA
:100B40002A30310548F0019780F2EFE9FFE0319754
:100B5000F1F700C00000F7CFE89EA001E99E500D1C
:100B60001124C901840F951F2491EF01E5CF0E9444
:100B7000F204E801BACFDF91CF911F910F91FF905E
:100B8000EF90089560E00C945805CF92DF92EF92B9
:100B9000FF926C01EE24FF2420E0C114D104E10493
:100BA000F10419F0C701B60120E1C72ED82EE92EB5
:100BB000FF24C114D104E104F10419F0285FC70136
:100BC000B6016B017C0154E0F694E794D794C79486
:100BD0005A95D1F7C114D104E104F10419F02C5F46
:100BE000C701B6016B017C0142E0F694E794D7940B
:100BF000C7944A95D1F7C114D104E104F10419F066
:100C00002E5FC701B6019695879577956795672BF7
:100C1000682B692B09F02F5F822FFF90EF90DF90F8
:100C2000CF90089508950C94120681E008950C94D5
:100C30001506CF93C82F0E9413068C2FCF910C94CA
:100C4000170690E080E008950895972F70E025E062
:100C5000929F600D711D1124FB0198E2899FE00DA8
:100C6000F11D1124EE0FFF1FE854FF4F8591949161
:100C70000895FC01EE0FFF1FE850FD4F8591949100
:100C80000895CF93DF930E9425060E945607EC013A
:100C9000811520E5920708F042C0811530E49307E2
:100CA00008F0BDC0883E910528F5803E910508F00A
:100CB0009DC0883A910588F4853A910508F08FC067
:100CC0008130910509F492C0009709F48FC0049710
:100CD00008F08CC0D0E0C0E089C08F3B910508F4DB
:100CE00089C0805C9109C03CD105A0F30E943906FF
:100CF000EC017CC08115904250F4C11581E0D80709
:100D000008F074C0CD3ED10528F3D0656FC0C11581
:100D100090E3D90708F079C0CE019F70E7CF811525
:100D200025E5920758F5811534E5930708F0A6C02C
:100D3000811542E5940750F4C11581E5D80708F400
:100D400071C0DC2FCC27C16FD06A50C0982F969508
:100D500096959E0123703327C115D34508F07FC0B7
:100D6000C1E0D0E002C0CC0FDD1F2A95E2F720E2FF
:100D7000929FC0011124C82BD92B6FC0C11589E5E2
:100D8000D807A8F4C11598E5D90708F07CC0C115AB
:100D900026E5D20708F09ECF8C2F0E94ED07C82FC2
:100DA000D0E0DC2FCC27CC27DF71D0621FC0C1156B
:100DB0003AE5D30708F46CC0CE01905681159042F5
:100DC00008F088CF8D2F8F710E94ED0790E0982F4B
:100DD000882788279F719C012C2BE901E6CFC55AF3
:100DE000D0E0C957DD4FC881D0E0D064CE01DF919B
:100DF000CF910895C85AD0E0CC0FDD1FC75ADD4F00
:100E00000990D881C02DD464F1CFCE019927D3FFAA
:100E100003C0EC01D86CEACFEC01D06CE7CFDF70F7
:100E2000D06AE4CFCE01E4E096958795EA95E1F7A4
:100E300083702C2F26952695237090E2299F900190
:100E40001124382B8C2F8370C1E0D0E002C0CC0F6E
:100E5000DD1F8A95E2F7C22BD32BDC68C7CFC1E038
:100E6000D0E002C0CC0FDD1F2A95E2F730E2939F5D
:100E7000C0011124C82BD92BDA68B8CFD82FCC27C2
:100E8000C46FD06AB3CFDC2FCC27C06FD06AAECF8F
:100E90008C2F8F700E94ED0734E0D695C7953A9558
:100EA000E1F7CF709C2FEC01D069A0CF823891057B
:100EB000B1F1B0F48133910509F475C048F4893279
:100EC000910509F469C08A32910509F473C0089547
:100ED0008533910509F459C08933910501F10895CD
:100EE000833E9105A9F138F4803E9105F9F0823EE8
:100EF000910549F10895863E9105A9F1873E910536
:100F0000C9F1843E910519F520919A0321FF1FC074
:100F10008091990384FD14C087EE90E0089520919C
:100F200099032370A1F080EE90E008952091990339
:100F300020FD47C030919A0330FF09C024FF44C010
:100F400090E080E004C02091990322FDF7CF08953E
:100F50002091990322FD3BC030919A0330FDE3CFED
:100F600024FFF5CFEDCF2091990323FFF0CF24FD8F
:100F7000E7CFD2CF2091990323FD2CC030919A0363
:100F800031FFEECF84EE90E008952091990325FF84
:100F9000DECF89E290E008952091990325FFD7CF15
:100FA00085E390E008952091990326FFD0CF8AE24F
:100FB00090E008952091990326FFC9CF81E390E046
:100FC000089589E390E0089583EE90E0089582EE1D
:100FD00090E0089586EE90E008959091990392FF35
:100FE00006C0282F28712830F9F4877F846093FF8A
:100FF00006C0282F28712831F1F4877E8461209162
:101000009A0320FF06C0382F38713830D9F4877F13
:10101000816021FF06C0282F28712831D1F4877EF6
:10102000816194FD877E0895282F24712430F9F67C
:101030008B7F8860DCCF282F2471243101F78B7ED1
:101040008861DDCF382F3171313019F78E7F88609C
:10105000E0CF282F2171213121F78E7E8861E1CFE9
:1010600008950E941621811102C00E94BB210E9496
:10107000212180938D030E94292190939A038093CC
:1010800099030E9430080E942521682F70E090E0AB
:1010900080E00E944B1E60917803709179038091EB
:1010A0007A0390917B030C94831E08950C94550849
:1010B00008950C945808E82FF0E0ED55FC4F80811E
:1010C0000895089580EA8A95F1F7089500C008957B
:1010D0000C946208F894E82FE295EF70F0E031A1EB
:1010E000282F2F7081E090E001C0880F2A95EAF741
:1010F000982F9095932391A392A1892B82A3789402
:10110000089508950C9481080E94FD09809133028E
:101110008091330294E0811190E09093AC0384E0DD
:10112000891B8093AB0384E30E946A0886E60E94D1
:101130006A0887E90E946A0886EC0E946A0885E3CB
:101140000E946A0885EF0E946A0881E90E946A0885
:1011500084EF0E946A0882E90E946A08EBE9F3E0E2
:10116000A3EAB3E011921D9283E0E33AF807D1F7C6
:1011700084E00E94AC090E9477040C94070A1F9334
:10118000CF93DF9300D000D0CDB7DEB70E94E30944
:10119000182F6091AC03882309F44FC019821A827A
:1011A0001B821C82862F90E0BE016F5F7F4F8D55A2
:1011B0009C4F0E947A14811120C08091DE028F5FC3
:1011C0008093DE028630B8F1E091AB03F0E0ED559C
:1011D000FC4FDE011196CE01059611921D92A817C3
:1011E000B907D9F70E947B04812F0F900F900F90C1
:1011F0000F90DF91CF911F9108951092DE02A09180
:10120000AB03B0E0AD55BC4FBE016F5F7F4F9E0199
:101210002B5F3F4F10E04D91FB019191BF014917AA
:1012200031F0AD0141505109FA019083182F621736
:10123000730789F7D7CF10E0D5CF70E06D557C4F9D
:101240008091AB0390E08D559C4F0E94A5140E94A5
:101250008208CACFCF92DF92EF92FF920F931F9333
:10126000CF93DF930FE812E08BE9E82E83E0F82EAE
:10127000C0E0CC24C394D12CF80181918F01F89463
:10128000E82FE295EF70F0E021A18F70A60102C077
:10129000440F551F8A95E2F7CA01922F982B91A30C
:1012A00092A18095892382A378940E946608EAE837
:1012B000F2E030E020E0D0E04191A42FA295AF70A1
:1012C000B0E090968C9190E04F7002C09595879514
:1012D0004A95E2F780FD3CC08C2D022E01C0880F9C
:1012E0000A94EAF7D82B2F5F3F4F2530310521F7BD
:1012F000F801319780810E946A080E946808F7010E
:101300008081D81739F1D08381E0C82BFFEFEF1A25
:10131000FF0A42E00339140709F0AECF6091AC0335
:1013200070E06D557C4F2C2F44E08BE993E00E94D8
:10133000AD090E94BF08C11101C0C82F8C2FDF91D9
:10134000CF911F910F91FF90EF90DF90CF90089574
:1013500080E0C8CF80E0D9CF0895FF920F931F930C
:10136000CF93DF93F82E092F162FD72FC42F2223C8
:1013700049F081E08093E1020E9497229093E0027D
:101380008093DF028091E1028823A1F08091DF0247
:101390009091E0020E94AF22069760F0EF2DF02FAF
:1013A000A12FBD2FCE0FDF2FD11DEC17FD0741F46C
:1013B0001092E102DF91CF911F910F91FF9008955C
:1013C00081918D93F2CF8091E202811107C00E943A
:1013D000E929882351F081E08093E20281E0909135
:1013E000E202913009F080E0089582E08093E20209
:1013F0000E94E429F3CF0C94E3090E94FB09809337
:1014000033020E94E30981110C946E1408950E9426
:10141000E309811102C00C94741408958091E902CB
:1014200080FF12C06091390285E0689FB0011124ED
:10143000759567957595679560387105A8F561157F
:101440007105A1F1862F089581FF09C060913902CD
:1014500085E0689FB001112475956795EDCF609187
:10146000390282FD0AC08091E8028823D1F0909170
:10147000380260913902891728F085E0689FB00131
:101480001124DACF869FB001112485E0869F900158
:10149000879F300D1124692F70E0C9010E940A2A2C
:1014A000CBCF65E070E0CECF8FE7089581E008955F
:1014B0008091E90280FF0CC06091350270E0759563
:1014C0006795759567956115710549F1862F0895A2
:1014D00081FF06C06091350270E075956795F3CF86
:1014E0006091350282FD0BC09091E7029923A1F033
:1014F0006091340280913502961738F0682F70E0C1
:101500006038710500F38FE70895899FC0011124A9
:1015100070E00E940A2AF4CF61E070E0D7CF81E04A
:1015200008958D3E31F40E940E0A81958093ED025C
:1015300008958E3E19F40E940E0AF8CF8F3E31F4C2
:101540000E940E0A81958093EC020895803F19F461
:101550000E940E0AF8CF893F29F40E94580A80930E
:10156000EE0208958A3F21F40E94580A8195F7CF30
:101570008B3F31F40E94580A81958093EF020895C1
:101580008C3F19F40E94580AF8CF9FE0980F9830CA
:1015900070F4815F990B21E030E001C0220F8A9541
:1015A000EAF78091EB02822B8093EB0208958D3F46
:1015B00031F48091E90281608093E90208958E3FC1
:1015C00021F48091E9028260F7CF8F3FB9F78091D3
:1015D000E9028460F1CF4091EC028D3E59F4809194
:1015E000ED0287FF0DC01092ED0241110BC0109269
:1015F000E80208C08E3E81F48091ED0218169CF33B
:10160000442381F08091EE029091EF02892B09F042
:101610005AC01092E70208958F3E49F447FFF0CF79
:101620001092EC028091ED028111ECCFE0CF803F6F
:1016300019F41416ACF3E4CF9091EE02893F29F42B
:101640001916F4F61092EE02DBCF8A3F19F497FFD9
:10165000D7CFF8CF9091EF028B3F29F497FFD0CFEF
:101660001092EF02CDCF8C3F19F41916CCF3C8CFEE
:101670009FE0980F983090F4815F990B21E030E063
:10168000B90102C0660F771F8A95E2F7CB018095FA
:101690009091EB0289238093EB02B2CF8D3F31F41E
:1016A0008091E9028E7F8093E902AACF8E3F21F4D8
:1016B0008091E9028D7FF7CF8F3F09F0A1CF809114
:1016C000E9028B7FF0CF08950E9497229C019091B0
:1016D000EC028091ED02982B21F03093E6022093EA
:1016E000E5029091EE028091EF02982B21F0309369
:1016F000E4022093E3028AEE92E00C943116EF921A
:10170000FF920F931F93CF93DF9300D000D000D0B0
:10171000CDB7DEB786E0EAEEF2E0DE011196019089
:101720000D928A95E1F7E090EC02F090ED020091C5
:10173000EE021091EF021092EC021092ED02109264
:10174000EE021092EF028E2D8F2991F08091E5022A
:101750009091E6020E94AF22AC019091E802992399
:1017600009F43FC080913A028417150608F447C077
:10177000802F812B91F08091E3029091E4020E94EE
:10178000AF22AC019091E702992309F477C08091D0
:1017900036028417150608F47FC08091EC02909100
:1017A000ED02892B9091EE02892B9091EF02892B0B
:1017B00011F00E94640B86E0FE013196AAEEB2E0C1
:1017C00001900D928A95E1F726960FB6F894DEBF48
:1017D0000FBECDBFDF91CF911F910F91FF90EF9082
:1017E000089520913B028AE0289F9001112424173C
:1017F000350708F0BDCF9F5F9093E80202C09F3F7E
:10180000D1F7EE2059F00E940E0A9FEF1E140CF43F
:1018100091E0899F802D11248093EC02FF2059F0E4
:101820000E940E0A9FEF1F140CF491E0899F802DF7
:1018300011248093ED023091EC02332309F498CF08
:101840002091ED02222309F493CF45EB3403C0012C
:101850001124992359F09093EC0245EB2403900155
:101860001124332339F03093ED0282CF81E080934D
:10187000EC02F3CF81E08093ED027ACF2091370222
:101880008AE0289F900111242417350708F085CF9E
:101890009F5F9093E70202C09F3FD1F7002359F06A
:1018A0000E94580A9FEF10160CF491E0899F802D3A
:1018B00011248093EE02112359F00E94580A9FEFE1
:1018C00011160CF491E0899F802D11248093EF0272
:1018D0003091EE02332309F460CF2091EF022223EE
:1018E00009F45BCF45EB3403C0011124992359F06F
:1018F0009093EE0245EB240390011124332339F039
:101900003093EF024ACF81E08093EE02F3CF81E083
:101910008093EF0242CF86E0EAEEF2E0DF011D9213
:101920008A95E9F71092E8021092E7021092E90214
:101930000895EF92FF920F931F93CF93DF93EB01E4
:10194000E82FD11110C0442321F0F0E0E850FD4F02
:10195000E4916E2F7E2F8E2FDF91CF911F910F91EB
:10196000FF90EF9008950D2F10E0282F30E04423D2
:1019700029F028503D4FF901249130E0F6E0CF9F47
:10198000C0011124EFEFF0E0BF010E94F629AB0186
:101990008C2F90E0880F991FA5E5A49FB001A59F0B
:1019A000700D1124861B970B982F990F980FBF016C
:1019B000601B710B629FD001639FB00D729FB00DD1
:1019C00011248B2F9D9FB0011124672F7727EF01E2
:1019D000C61BD70BBE01629FE001639FD00D729FB3
:1019E000D00D11247F01E91AF108E09EB001E19EBB
:1019F000700DF09E700D1124672F7727E61BF70BF3
:101A0000E29F8001E39F100DF29F100D1124E12F42
:101A1000722F4230510599F048F44115510569F093
:101A20004130510581F0EB2F8D2F07C04430510517
:101A300069F080F046305105B1F76E2F8DCFE22F5F
:101A40007B2F812FFACFE22F7D2FF7CFEB2F822F25
:101A5000712FF3CF7B2F822FED2FEFCF41E00C942E
:101A6000990C0C942E0DCF93DF93762FE901682FFC
:101A7000842F0E94310D798368838A83DF91CF910F
:101A800008958091AD03982F9E7F39F48091AD0326
:101A9000817082608093AD0308958430B8F7089513
:101AA00088E090E00C942C2ACF92DF92EF92FF9284
:101AB0006B017C010E94410DB701A60188E090E016
:101AC000FF90EF90DF90CF900C944A2AEDEAF3E07C
:101AD00083E0808311828FEF82838383148260810D
:101AE0007181828193810C94540D9091B103933054
:101AF00018F49F5F9093B103882351F06091AD0378
:101B00007091AE038091AF039091B0030C94540D8B
:101B1000089581E00C94750D9091B103992319F00B
:101B200091509093B103882351F06091AD0370916F
:101B3000AE038091AF039091B0030C94540D0895BF
:101B400081E00C948C0D70E00C94890F60913D0243
:101B50008091AD0380FF0AC080913C0223E0829F08
:101B6000C00111248E549C4F0C94A30D80913E0211
:101B700090913F0223E0829FF0011124EE54FC4F2C
:101B8000891750F71182108212828F5F3396F8CF37
:101B9000EDEAF3E080818E7F8083608171818281B4
:101BA00093810E94540D2FEF80E792E021508040F6
:101BB0009040E1F700C000000C94A60D9091AD0399
:101BC00090FF14C090913E0220913F0233E0939F1A
:101BD000F0011124EE54FC4F921710F00C94A60D56
:101BE0008183608342839F5F3396F6CF0895EF929F
:101BF000FF920F931F93CF93DF9300D00F92CDB737
:101C0000DEB7F82E062F142FE22E8091AD0380FF51
:101C100028C0E82FE695F0E0E956FD4F90819093BB
:101C2000F1028E7F823059F49E012F5F3F4F8F2D3E
:101C30000E94330D4B8169818A810E94DE0DF092F2
:101C4000AE030093AF031093B003EE2051F0609108
:101C5000AD037091AE038091AF039091B0030E94E9
:101C6000540D0F900F900F90DF91CF911F910F9116
:101C7000FF90EF900895EDEAF3E09181282F4381E2
:101C8000628188E0890F0C94F70D81E00C943B0E83
:101C9000EDEAF3E09181282F4381628188EF890F7B
:101CA0000C94F70D81E00C94480EEDEAF3E06281AC
:101CB00021E1620F08F46FEF282F438181810C949A
:101CC000F70D81E00C94550EEDEAF3E0628121E11D
:101CD000621B08F460E0282F438181810C94F70D8A
:101CE00081E00C94640EEDEAF3E0438121E1420FC0
:101CF00008F44FEF282F628181810C94F70D81E069
:101D00000C94730EEDEAF3E0438121E1421B08F4E9
:101D100040E0282F628181810C94F70D81E00C94C2
:101D2000820E20E00C94F70D8091AD0380FF18C067
:101D3000817082608093AD03662351F06091AD03A2
:101D40007091AE038091AF039091B0030E94540D47
:101D50004091B0036091AF038091AE030C94910E5B
:101D60000895682F81E00C94940E81E00C94B10EDC
:101D7000682F9091AD0396958FEF890F09F481E05C
:101D80000C94940E81E00C94B80E61E00C94940EC7
:101D9000EDEAF3E080818160808386950C94C50E26
:101DA0008091AD0380FD0C94C80D0C94C80E60E0CA
:101DB0000C94940E8091F00281112CC00E94162187
:101DC000811104C00E94BB210E94660D0E94500D2B
:101DD0006093AD037093AE038093AF039093B00311
:101DE0006E7F61F40E94660D0E94500D6093AD03FA
:101DF0007093AE038093AF039093B0030E94410DA4
:101E00008091AD0380FF03C086950E94D70E81E0CC
:101E10008093F0020895FA01811101C0FB01099439
:101E20001F93CF93DF93EC01FB01128111114FC07F
:101E30000E9454208272CA3CFCE5DF0709F460C0AE
:101E400030F5C63CECE5DE0709F455C060F4C43C4F
:101E50009CE5D90709F443C008F048C0C33CDC4501
:101E6000D9F111E034C040E75EE061E67EE0C83CB5
:101E70009CE5D907C1F145E45EE062E57EE0C93C3E
:101E8000DC4588F141E65EE060E77EE02CC0CE3CB8
:101E9000FCE5DF07D1F1A0F440EA5DE069E87DE010
:101EA000CC3CECE5DE07F9F04FE75EE06EE87EE063
:101EB000CD3CDC45C0F049E85DE060EA7DE013C060
:101EC000C73D8CE5D80718F0CE35DD4551F6812F9A
:101ED000DF91CF911F9108950E94D00EF8CF42EC70
:101EE0005EE065EB7EE00E940B0FF1CF45EB5EE01C
:101EF00062EC7EE0F8CF42E55EE065E47EE0F3CFA1
:101F00004EE85EE06FE77EE0EECF81E00E94C50E16
:101F1000DECF209A45B14E7F55B15160EFB7F894AE
:101F20009B01220F331F260F371F280F391F281739
:101F3000390741F4EFBF8FE594E00197F1F700C056
:101F400000000895DC016D91CD0178E055B90000E5
:101F500000C067FF45B9660F000000C000C000C0A8
:101F600045B900C07A9591F7E2CF0C948E03809129
:101F70003302811106C082E38093420286E380939C
:101F8000410220914202A22FA295AF70B0E091963B
:101F90003C9191972F7081E090E0BC01022E01C02E
:101FA000660F0A94EAF7462F4095432391964C9387
:101FB000919792963C919297362B92963C9392975A
:101FC00040914102E42FE295EF70F0E031A14F70B3
:101FD000042E01C0880F0A94EAF7982F9095932356
:101FE00091A392A1892B82A390968C9190E002C03C
:101FF000959587952A95E2F7817020A130E002C07F
:10200000359527954A95E2F792E020FF90E0892BDD
:102010008093F8029091330281E098279093F40224
:10202000891B8093F3020895CF93E091F802EE0F9D
:10203000EE0F20914202A22FA295AF70B0E09096D1
:102040008C9190E02F7002C0959587952A95E2F7C4
:102050008170992740914102A42FA295AF70B0E002
:1020600090962C9130E04F7002C0359527954A9597
:10207000E2F7A9014170552720FF02C042E050E07D
:10208000842BE82BE093F802C091F402EF70F0E0AB
:10209000E756FD4F80819091F702890F8093F702F8
:1020A00020E0843064F0EC2FF0E0EB50FD4F8081B5
:1020B0008F5F808360E08C2F0E94B50F21E08091BC
:1020C000F7028D3F64F4EC2FF0E0EB50FD4F808180
:1020D0008150808361E08C2F0E94B50F21E08091B8
:1020E000F702082E000C990B64E070E00E940A2AA7
:1020F0008093F702822FCF910895E091F402F0E0EF
:10210000EB50FD4F2081FC0120830895FF920F9337
:102110001F93CF93DF93D091F3020D2F10E00B505C
:102120001D4FFC01C081F8018081C81BFC2E80E09E
:102130001F147CF09C2FC7FD90E0C91BC11114C077
:102140008823E9F0DF91CF911F910F91FF900C94BC
:102150007E16FA94F80180818F5F808360E08D2F76
:102160000E94B50F81E0E4CFCF5FF80180818150FC
:10217000808361E08D2F0E94B50F81E0DFCFDF917A
:10218000CF911F910F91FF9008950F931F93CF93BD
:10219000DF93C42FD22FFC0182818823C9F04093A2
:1021A000FB020E9497229093FA028093F90280E248
:1021B0008C0F883008F050C0C77081E001C0880FD4
:1021C000CA95EAF7DF91CF911F910F910C943218C5
:1021D0001091FB02141335C08091F9029091FA021C
:1021E0000E94AF228F3A910560F5C0E2CD0F1D1716
:1021F000B9F080E2810F883040F4177081E001C0AF
:10220000880F1A95EAF70E943918C83048F481E01F
:102210009D2F977001C0880F9A95EAF70E94321897
:10222000802F0E942A18C830B8F4D77081E001C00E
:10223000880FDA95EAF7DF91CF911F910F910C94F7
:10224000391880E28C0F883038F4C77081E001C003
:10225000880FCA95EAF7EFCFDF91CF911F910F91C9
:1022600008950F939C01CB01243F4CE5340759F1AD
:10227000A8F4293DFCE53F0701F12A3D4CE5340770
:10228000D1F1283D3C4591F406E221EE41EE68EDA6
:102290007CE50E94C51080E00F910895263FFCE583
:1022A0003F07E9F0B0F0273F3C45F9F0FC0182819F
:1022B000882339F11092FB02EFCF07E225EE45EEBD
:1022C00069ED7CE5E6CF06E221EE40EE64EF7CE5C9
:1022D000E0CF07E225EE44EE65EF7CE5DACF06E2DB
:1022E00021EE42EE66EF7CE5D4CF07E225EE46EE26
:1022F00067EF7CE5CECF08E221E045EE6AED7CE5B4
:10230000C8CF81E0C9CFCF93DF93EC01FB0182817D
:10231000882309F419C1C230FCE5DF07C0F1C631DA
:102320009CE5D90730F09E012B5F3C4529303105F3
:1023300070F50E94292190939A0380939903C031EC
:10234000ECE5DE0709F4CFC008F05BC0C8308CE5CF
:10235000D80709F4B6C088F5C430ECE5DE0709F407
:10236000A8C0C0F4C2308CE5D80709F49CC08091A5
:1023700099038260C330DC4509F498C080919903C9
:1023800090919A030E9437210E94B31A80E0DF9156
:10239000CF910895809199038061C630ECE5DE0706
:1023A00009F484C0809199038860C730DC4508F443
:1023B0007DC080919903806279C0CC308CE5D807CC
:1023C00009F489C070F4809199038C60CA30ECE5FF
:1023D000DE0709F46BC008F478C0809199038E7F02
:1023E00065C0CE308CE5D80709F479C08091990397
:1023F0008B7FCF30DC4508F459C0809199038F7EE4
:1024000055C0CC3FECE5DE0709F457C030F5C331C9
:102410008CE5D80709F46FC078F4C131ECE5DE072C
:1024200009F465C0C231DC4509F0A8CF0E94B31A97
:10243000809199038F773AC0C5318CE5D80709F4AC
:1024400062C008F476C080919A038160CB3FDC457E
:1024500009F094CF80939A0391CFC115FDE5DF0772
:1024600009F44DC088F480919A038D7FCE3F9CE59E
:10247000D90781F380919A038E7FCF3FDC4550F3DB
:1024800080919A038360E6CFC230FDE5DF0709F44F
:1024900059C008F444C080E0C330DD4509F06ECF78
:1024A0000E94BD216BCF8091990381608093990335
:1024B00065CF809199038460F9CF80919A038260FF
:1024C000C9CF809199038064F1CF0E94B31A8091A3
:1024D00099038068EBCF809199038D7FE7CF80913E
:1024E0009903877FE3CF809199038F7DDFCF809120
:1024F00099038F7BDBCF80919903837FD7CF809126
:102500009A038C7FA7CF8091990382FB992790F93A
:1025100021E0922790FB82F990FB83F9C7CF80914D
:102520009A03982F909591708E7F892B90FB81F95B
:1025300091CF0E94B31A90919903892F97FB87F945
:102540008058B4CF81E0ACCF81E021CFCF93DF932F
:10255000EB0186319C4511F50E9454209A81992304
:1025600099F08A7A91E009F490E09093FC0281114D
:1025700009C089E20E940E200E94A72080E0DF911E
:10258000CF91089585E3F6CF8091FC02811104C0BC
:1025900089E20E941520F0CF85E3FBCF81E0EFCFE9
:1025A000CF93DF93EC0181E0898B8F810E945720CC
:1025B00088850E946A200E94A720EA81FB813097CB
:1025C00039F06C897D89CE010696DF91CF9109940F
:1025D000DF91CF910895CF93DF93EC018881823012
:1025E00039F4FB01828193810E94F50381E08B879E
:1025F000DF91CF910895FC018081813029F4FB01A6
:10260000808191810C94F503823021F4FB01828159
:102610009381F8CF0895FC018081813029F4FB017A
:10262000808191810C940A04823021F4FB01828123
:102630009381F8CF0895DB01FC018081813021F482
:102640008D919C910C94F503823039F41396ED91A1
:10265000FC91149712968C9109940895FC01808145
:10266000813029F4FB01808191810C940A04089542
:10267000EF92FF920F931F93CF93DF93EC018A8524
:10268000811134C0EB80FC8087E5F81A26E12E9D8D
:10269000C0012F9D900D1124DC01A050BF4F149656
:1026A000ED91FC911597309731F054966D917C9196
:1026B0008A5F9E4F099586E18E9D80018F9D100D4A
:1026C000112400501F4FF80187810E945D20F801FE
:1026D00080850E9470200E94A720188219861B8680
:1026E0001E821D821092FE021092FD02DF91CF9198
:1026F0001F910F91FF90EF900895DF92EF92FF925C
:102700000F931F93CF93DF937C01FB01828188237A
:1027100091F0809143028F3F71F0C0E0D1E010E072
:1027200000E0DD24D39480914302082E000C990B25
:102730008017910744F4DF91CF911F910F91FF9083
:10274000EF90DF9008958E818823D9F089859A854E
:102750008E159F0539F48091FD029091FE028E1531
:102760009F0579F0DF86FC86EB868989811103C09D
:10277000CE010E94D012CE0106960E9438130E940C
:1027800077200F5F1F4F6696CECFEF92FF920F9389
:102790001F93CF93DF937C0197558F3F910509F0ED
:1027A000D8F520914302022E000C330B281739076D
:1027B00014F480934302FB01228136E1389F8001AB
:1027C000399F100D1124E801C050DF4F288B9281F2
:1027D0008E81992349F1FA86E9868F5F8E830E9464
:1027E00097229E878D870E948A208F830E94542083
:1027F00088870E9467209885892B8887E881F981DE
:10280000309731F06C897D89C8018A5F9E4F0995A8
:10281000F092FE02E092FD0281E0DF91CF911F91E4
:102820000F91FF90EF9008958823B1F38989882351
:1028300099F3C8018A5F9E4F0E943813EDCFEF9243
:10284000FF920F931F93CF93DF938091430210E089
:1028500006E18F3FC1F5DF91CF911F910F91FF905E
:10286000EF900895029FF001039FF00D1124E050B6
:10287000FF4FE288F388E114F10419F48FEAE82E9F
:10288000F12C029FE001039FD00D1124C050DF4FB7
:102890008E818823B9F08D859E850E94AF22E8162F
:1028A000F90680F4109F700111248989811105C0F7
:1028B000C70180509F4F0E94D012C7018A5F9E4F70
:1028C0000E9438131F5F212F30E080914302082EB1
:1028D000000C990B821793072CF6BDCF61E070E0D6
:1028E00084E492E00C94271561E070E084E492E0C7
:1028F0000C942E15CF93DF93D62FC72F0E94C815A7
:10290000009709F5ED2FFC2FDC01AC5FBC4F2C913B
:102910002193019684309105B9F788E093E00E94F5
:1029200086100E9408236E5F7F4F8F4F9F4F6093EA
:10293000000370930103809302039093030381E0EB
:10294000DF91CF91089580E0FBCFCF93DF93D62F17
:10295000C72F609100037091010380910203909151
:1029600003030E94EB22ED2FFC2F90E080E02191E9
:10297000DC01AC5FBC4F2C93019684309105B9F714
:1029800088E093E0DF91CF910C947D108EE14B9B1A
:1029900002C08150E1F74B9BFECF08955B9880E227
:1029A0008A95F1F75B9A0895FC013BE03A95F1F7BF
:1029B00098E020E080E031E040E14A95F1F7880FAF
:1029C0004B9B02C08160232742E04A95F1F700004B
:1029D00040E14A95F1F7915079F790E19A95F1F736
:1029E00099B132E03A95F1F7000040E14A95F1F7EC
:1029F00093FB992790F992272081920F9083089555
:102A0000EF92FF920F931F93CF93DF930F92CDB767
:102A1000DEB719828C017C01E60EF11C0E151F0534
:102A200061F481E09981911180E00F90DF91CF9165
:102A30001F910F91FF90EF9008950E94C614CE0150
:102A400001960E94D414F80181938F01E7CF9093EF
:102A50000A0380930903539A5B9A089590930A039B
:102A60008093090353985B9AEB9AE9E6F0E0808142
:102A70008F73808308956150770B91E001C0990FA7
:102A80006A95EAF720E031E0911108C0222391F025
:102A90005B9A80E28A95F1F75B980895492F482365
:102AA00039F05B9A232740E24A95F1F79695ECCFEF
:102AB0005B98F9CF5B98EDCFFF920F931F93CF9365
:102AC000DF93EC018C01060F111DC017D10731F403
:102AD000DF91CF911F910F91FF900895F9900E947F
:102AE000CE1468E08F2D0E943B15EFCF1F920F92FE
:102AF0000FB60F9211242F933F934F935F936F93D1
:102B00007F938F939F93AF93BF93CF93DF93EF9375
:102B1000FF935B98539AC0910903D0910A036D818A
:102B2000662321F08E819F810E945C150E94CE1445
:102B300080E18A95F1F75B9853985B9A80E18A95DA
:102B4000F1F76A81662309F18B819C810E9400154F
:102B5000E881F981882311F088E001C082E0808358
:102B60000E94C614FF91EF91DF91CF91BF91AF9179
:102B70009F918F917F916F915F914F913F912F9195
:102B80000F900FBE0F901F901895E881F981E4CF48
:102B9000CF93DF93C0910903D0910A03F894539A1D
:102BA0005B9885E08A95F1F7000053985B9A80E284
:102BB0008A95F1F74B9B0CC0539A5B9AE881F98197
:102BC00081E08083789481E090E0DF91CF91089557
:102BD0006D81662381F08E819F810E940015811195
:102BE0000AC0539A5B9AE881F98182E080837894E5
:102BF00082E090E0EACF0E94C61480E28A95F1F765
:102C00005B98539A80E18A95F1F76A81662321F0F7
:102C10008B819C810E945C150E94CE14E881F98111
:102C20001082789490E080E0D0CF9093100380934E
:102C30000F030895E0910F03F0911003309721F0F6
:102C40000190F081E02D099480E00895E0910F0358
:102C5000F0911003309721F00280F381E02D099468
:102C60000895E0910F03F0911003309739F022E0BE
:102C7000DC012C930480F581E02D099408952091C6
:102C80000D0330910E032817390771F090930E034E
:102C900080930D03E0910F03F0911003309721F022
:102CA0000680F781E02D0994089520910B0330915F
:102CB0000C032817390771F090930C0380930B03D2
:102CC000E0910F03F0911003309721F00084F1851B
:102CD000E02D099408950E94A3226093220370932B
:102CE0002303809324039093250360931E03709322
:102CF0001F03809320039093210308950E94A32231
:102D000060932203709323038093240390932503FD
:102D100060931A0370931B0380931C0390931D030D
:102D2000089585B7806885BF85B7806885BF089599
:102D3000089508950C9498160C9484030E9491169B
:102D400084E191E20E9434230E9499160C949A1611
:102D50000C94E309089508950E94AA160C94AB16EA
:102D60000E948E220E94E2220E9484080E94DA0EB3
:102D70000E94B70F0C949C16AF92BF92CF92DF9235
:102D8000EF92FF920F931F93CF93DF93CDB7DEB7F0
:102D90002A970FB6F894DEBF0FBECDBF0E942A0956
:102DA00081110E946B1682E1A82E83E0B82E10E0FC
:102DB00000E0C02E802F0E945B08E82EF501F19004
:102DC0005F01F81609F453C080918D0381FD0E94C4
:102DD00061088F2D8E25D12CFF24F394982F9F21ED
:102DE00009F440C00E94A816882399F0DE82CF82A1
:102DF000EF2081E009F480E088870E9497228160BB
:102E0000782F9A8789874E815F8168858A850E949D
:102E10005F17F801EE5EFC4F8081F826F0820E9479
:102E2000141081110E947E160E947F0B0E941A16B8
:102E300090911103891791F10E941A168093110342
:102E40002A960FB6F894DEBF0FBECDBFDF91CF91AB
:102E50001F910F91FF90EF90DF90CF90BF90AF90B8
:102E60000C941906D394FF0CF5E0DF12B7CF0F5F77
:102E70001F4F0830110509F09CCF8FEF89838A839B
:102E80001B820E9497228160782F9D838C834981C9
:102E90005A816B818D810E945F17C1CF2A960FB630
:102EA000F894DEBF0FBECDBFDF91CF911F910F9180
:102EB000FF90EF90DF90CF90BF90AF900895DF929A
:102EC000EF92FF920F931F93CF93DF93CDB7DEB7AF
:102ED0002B970FB6F894DEBF0FBECDBF7A878B87D6
:102EE000F42E052F162FE72ED82E61110E94772081
:102EF0001E821D827E2DEC82DD824F2D502F612F90
:102F00008D2D9E812B960FB6F894DEBF0FBECDBFE0
:102F1000DF91CF911F910F91FF90EF90DF900C9474
:102F2000291DFC01808191810C94E01FCF93C82F53
:102F3000882309F447C08CEF8C0F813AA0F46C2FE2
:102F400080914C0290914D020E94D421882329F057
:102F50008C2F0E9415200E94A7208C2F0E940E20EB
:102F6000CF910C94A72080E28C0F883048F4C77072
:102F700081E001C0880FCA95EAF70E945720F0CF80
:102F8000EBE5EC0FE33040F4F0E0E952FD4F8081D7
:102F900090E0CF910C943F16E8E5EC0FE73150F448
:102FA000F0E0EE0FFF1FE755FD4F80819181CF913B
:102FB0000C945516CD3E30F08C2F0E94910ACF9183
:102FC0000C94640BCF910895882361F19CEF980FC6
:102FD000913A20F40E9415200C94A72090E2980FBB
:102FE000983050F4877091E001C0990F8A95EAF704
:102FF000892F0E945D20F0CF9BE5980F933020F43D
:1030000090E080E00C943F1698E5980F973120F4FB
:1030100090E080E00C9455168D3E20F00E94EB0A63
:103020000C94640B08951F93CF93DF93182FEB013B
:103030000E949617209731F4812FDF91CF911F9135
:103040000C94E4178FE99FE00197F1F700C00000AE
:103050002197F0CF70E060E0893311F460E570E013
:103060000C941318882321F00E9457200C94A72059
:103070000895882321F00E945D200C94A7200895D4
:10308000BF92CF92DF92EF92FF920F931F93CF9355
:10309000DF937C01D62FC72FFC0112810581029599
:1030A0000F700E942C20D82E8823A1F0D12E11233E
:1030B00089F08C2F807F803429F080E28D0FD12C15
:1030C000883040F082E00E94F8200E942C2091E09D
:1030D000D82ED926CC2EC2949FE0C922EC2DF0E048
:1030E000EA58F54D0C941E2A0C2F0F70C07F11F07A
:1030F0000295007F1123A9F0002359F080E28D0F83
:10310000883010F0D11109C0802F0E9457200E94F2
:10311000A7208D2F0E94961714C0802F0E946A202E
:10312000F6CF8D2F0E94E417002359F080E28D0F17
:10313000883010F0D1112CC0802F0E945D200E9499
:10314000A7202C2D2850330B2430310520F40E9469
:103150001A160E941906DD2009F498C10E94282041
:1031600080FD94C1F70112820E9422200E94AB1EB2
:10317000C7010E94671A0E942220DF91CF911F9100
:103180000F91FF90EF90DF90CF90BF900C94CC1EEA
:10319000802F0E947020D3CFFC2FFF70BF2EC07FE6
:1031A000C03219F0B29480EFB822DD2339F0D1306B
:1031B00019F1112361F1002321F1ABCF112381F02B
:1031C000011106C00E948A208B290E943218B9CFB3
:1031D0000130C1F70E948A208B290E949020B1CF34
:1031E000011106C00E949D208B2D0E943918A9CF85
:1031F000013009F4A6CFF6CF112329F0063008F0EC
:10320000A0CF8B2DE2CF053008F09BCFEDCF002370
:1032100059F3D93349F42FEF37EE83E02150304092
:103220008040E1F700C000008D2F0E94E41789CF95
:103230008C2F86958695837069F0813009F081CF57
:103240008D2F9C2F9370111102C090E080E00E949E
:10325000551677CF8D2F9C2F9370111102C090E0DF
:1032600080E00E943F166DCF8D2F112329F00E9420
:10327000910A0E94640B65CF0E94EB0AFACF8C2F53
:10328000837009F041C011115CCF4D2F42954695D6
:103290004770440F440F0D2F0F7010E030E020E016
:1032A000042E04C0000F111F221F331F0A94D2F7EF
:1032B00060E070E0CB01D4FF0FC06FE070E080E011
:1032C00090E004C0660F771F881F991F4A95D2F7B8
:1032D0006095709580959095C695C695C370602B46
:1032E000712B822B932BC23049F058F4C13019F066
:1032F0000E945F1E26CF0E944D1E23CF0E94711E8A
:1033000020CF0E944B1E1DCF8695112311F08C2FCC
:103310008170882309F415CF4D2F4295469547704B
:10332000440F440F0D2F0F7010E030E020E0042E0A
:1033300004C0000F111F221F331F0A94D2F760E050
:1033400070E0CB01D4FF0FC06FE070E080E090E050
:1033500004C0660F771F881F991F4A95D2F76095A2
:10336000709580959095C695C695C370602B712B0E
:10337000822B932BC23049F058F4C13019F00E94CF
:10338000221FDFCE0E94101FDCCE0E94341FD9CE38
:103390000E94851ED6CECF70112329F08C2F0E945B
:1033A000AB1E8D2F12CF8D2F0E9439188C2F0E94AB
:1033B000CC1EC7CED23F89F160F4D03FC9F0D13FD7
:1033C00029F1112309F442C00111A3CE8C2F8F7172
:1033D00021C0D33F39F1D43FA1F7112369F1CF7157
:1033E0008C2F0E94AB1E63E08C2F0E94DD20A9CEA3
:1033F000112341F0053008F0A4CE8C2F8F710E946C
:10340000EF1E9FCE063008F09CCEF7CF8C2F8F7129
:10341000112369F20E94AB1E94CE8C2F8F71112361
:10342000C9F3C5CF112329F08C2F8F710E94961EEE
:1034300088CE0E94911E85CE81E00E94F820023045
:1034400008F47FCE82E00E94F8207BCE002359F062
:10345000D93309F0E9CE9FEFE7EEF3E09150E04079
:10346000F040E1F7DFCE8C2F8F71A1CF4C2F4F7042
:103470006D2FC7010E9421060E94C31D62CE4C2FF2
:103480004F706D2FC7010E9424065BCEDF91CF9154
:103490001F910F91FF90EF90DF90CF90BF90089514
:1034A0000F931F93CF93DF93EC01688179818A8119
:1034B0000E94EA1F8C010E94461F0E944A1EB8010A
:1034C000CE01DF91CF911F910F910C944018CF93B3
:1034D000DF93EC018B819C81892B29F08881998174
:1034E00089238F3F59F4DF91CF910895CE010E9437
:1034F000501ACE01DF91CF910C946C04CE010E9442
:103500008F048111F3CF0E942C20882361F38A81DC
:10351000882349F382E0DF91CF910C94F82088232F
:1035200021F00E946A200C94A7200895882321F09E
:103530000E9470200C94A720089590E080E00E94E3
:103540003F1690E080E00E9455160E9477200E946E
:1035500087200E94A7200E948B0C0C94640B0E9471
:103560001C200C949D1A0E9464200C94AF1AE92F21
:10357000E295EF70E250EE3070F4F0E0EA57F54D6E
:103580000C941E2A803F19F020F4883E20F481E03C
:103590000895843FE1F380E00895883EC0F3813FC1
:1035A000D1F7F5CF93FB882780F908950E94E01F9B
:1035B0000C94B71ACF93DF9300D000D00F92CDB701
:1035C000DEB70F900F900F900F900F90DF91CF917B
:1035D0000895CF93DF9300D000D000D0CDB7DEB7F1
:1035E00026960FB6F894DEBF0FBECDBFDF91CF9108
:1035F00008951F93CF93DF93C091270316E0809126
:1036000028038C1304C0DF91CF911F910895D0E05F
:103610001C9FF0011D9FF00D1124E75DFC4F4081C0
:10362000518162817381848195810E94E91A21967A
:10363000C770E5CF4091590350915A0360915B03E5
:1036400070915C0380915D0390915E030C94E91A84
:103650001F93CF93DF9380915E03807FA9F48091C5
:103660005B03882389F080912703C0912803609130
:10367000590370915A03A0915C03B0915D03D62F5A
:10368000D72316E0C81304C0DF91CF911F9108958E
:1036900090E0109711F0DF3F19F401968770F2CF98
:1036A000189F9001199F300D1124F901E75DFC4F1F
:1036B00041814713F2CF40814613EFCF4281411140
:1036C000ECCF438154814A1B5B0B4F3A510528F7DD
:1036D00080915E038F70806180935E03F901E25DEB
:1036E000FC4F80818F708061808389E593E00E9428
:1036F000671ADF91CF911F910C94F91AAF92BF9284
:10370000CF92DF92EF92FF920F931F93CF93DF93AD
:10371000CDB7DEB761970FB6F894DEBF0FBECDBF51
:103720008C0185E0F801DE011D9601900D928A95CD
:10373000E1F7F80140815181E28089E5C82E83E0FC
:10374000D82E60915C0370915D036115710509F4D9
:1037500061C19091590320915A03892F82238F3F91
:1037600009F458C1A380B480F0905B03F501E61B17
:10377000F70BFF2009F4FCC080915E03382F307FE7
:10378000EF3AF10508F0B2C0311179C0FE2C2513D3
:1037900023C0941321C0E1101FC08F7080618093FB
:1037A0005E030E941A1BC6010E94671A80915E0385
:1037B000F80185838F2D61960FB6F894DEBF0FBE9A
:1037C000CDBFDF91CF911F910F91FF90EF90DF90D0
:1037D000CF90BF90AF900895AB2829F0842F852318
:1037E0008F3F09F033C180E0F82FF170DF2E80FFAA
:1037F0003CC0809127032091280336E0821315C036
:103800004D875E878D859E850E94E01F292F22951A
:103810002F702230F0F0243018F59F70F1F0F8018D
:103820009581907FD1F4D12C1EC090E0389FF0019B
:10383000399FF00D1124E75DFC4F6181651306C0CF
:103840006081641303C062816E110FC0019687709E
:10385000D5CF9F7011F0882331F3805E883018F344
:10386000C8010E94671AFD2CA5CFEE2009F4A2CF53
:1038700080915E03816080935E03F12C9BCF2513C2
:1038800006C0941304C0F801EE2009F48DC04D87E2
:103890005E878D859E850E94D61A882319F1EE20B9
:1038A00009F180915E03803270F0209159033091CC
:1038B0005A0338872F831986BB86AA868C87CE0148
:1038C00007960E94671A86E0F801A9E5B3E0019027
:1038D0000D928A95E1F70E94281B0E941A1BFF2473
:1038E000F39468CFC8010E94671AF9CF311113C051
:1038F0007A2DB98AA88A6E2D89890E94DA1A89E5FB
:1039000093E00E94671A86E0F60111928A95E9F722
:103910000E941A1BB2CF25130FC094130DC0E110E3
:103920000BC0F8018583C8010E94671A86E0F60182
:1039300011928A95E9F73ECF4D875E878D859E85EA
:103940000E94D61A882371F2EE2061F280915E0304
:10395000803208F4B8CF2091590330915A033A834A
:1039600029831B82BD82AC828E83CE010196A9CFB2
:10397000EF3AF10508F041C0FE2CEE2009F4B2CF79
:1039800025132AC0941328C080915E0380FD1BC0BC
:10399000982F907FC1F0F8018583903F31F0982FE8
:1039A000907F905F8F70892B8583C8010E94671A72
:1039B00086E0F801A9E5B3E001900D928A95E1F760
:1039C0000E941A1BF7CE86E0F801A9E5B3E001904A
:1039D0000D928A95E1F7EECE4D875E878D859E85A7
:1039E0000E94D61A81116FCF80915E03816080930F
:1039F0005E03C8010E94671ADDCE7A2DB98AA88AB3
:103A00006E2D89890E94DA1A86E0F60111928A9554
:103A1000E9F7D6CFEE2009F465CF4D875E878D8517
:103A20009E850E94D61AF82E882309F45BCF86E083
:103A3000F801A9E5B3E001900D928A95E1F789E5D7
:103A400093E00E9491170E94281BBACF81E08E2537
:103A5000CBCE1F93CF93DF93CDB7DEB72C970FB6A6
:103A6000F894DEBF0FBECDBF4F83588769877A8732
:103A70008B879C87CE0107960E947E1B882369F066
:103A80008A859B85892B39F04F815885842F852322
:103A90008F3F09F071C016E05FC086E0FE013796E7
:103AA000DE01119601900D928A95E1F78A859B853A
:103AB000892B89F38F81988589238F3F61F320912A
:103AC000280330E0C90101968770992740912703A8
:103AD0004817190671F40E94B31A10922803109225
:103AE000270386E0E9E5F3E0DF011D928A95E9F717
:103AF000D2CF96E0929FD001939FB00D1124A75D85
:103B0000BC4FFE01319601900D929A95E1F780939A
:103B100028030E94F91ABFCF819FC0011124875D3D
:103B20009C4F0E947E1B8823E9F0E09127031E9F93
:103B3000F0011124E75DFC4F408151816281738166
:103B4000848195810E94E91A8091270390E0019673
:103B500087709927809327038091270390912803EA
:103B60008913DACF2C960FB6F894DEBF0FBECDBF07
:103B7000DF91CF911F91089569857A858B859C850A
:103B80000E94E91A88CFEF92FF920F931F93CF9371
:103B9000DF938C01892B81F0F12CEE24E394E80172
:103BA0002196F8018491843770F4843008F05FC066
:103BB0008130B1F08230A1F1DF91CF911F910F914F
:103BC000FF90EF900895853709F44CC008F43DC08C
:103BD0009CE7980F903780F78F770E94E41749C0D1
:103BE0000E5F1F4FFE01849190E2980F983060F4B1
:103BF0008770FE2D01C0FF0F8A95EAF78F2F0E9474
:103C00007A200E94A72002C00E9496178F2D815013
:103C100030F2EFE9FFE03197F1F700C00000F7CF95
:103C20000E5F1F4FFE01849190E2980F983050F480
:103C30008770FE2D01C0FF0F8A95EAF78F2F0E9433
:103C40008020DFCF0E94E417E1CF0E5F1F4FFE01FF
:103C5000C491C150D8F28FE99FE00197F1F700C0FD
:103C60000000F7CF0E5F1F4FFE01F490CFCF0E94F0
:103C700096178E01CBCF08950C943B1E0E943C1EDC
:103C800060937C0370937D0380937E0390937F0306
:103C90000C949D1A08950C943E1E0F931F9300914F
:103CA0007C0310917D0320917E0330917F03602B74
:103CB000712B822B932B1F910F910C943E1E0F930F
:103CC0001F9300917C0310917D0320917E0330911E
:103CD0007F0360237123822393231F910F910C9400
:103CE0003E1E0F931F9300917C0310917D03209142
:103CF0007E0330917F0360277127822793271F91CE
:103D00000F910C943E1E0C9450030E94831E6093EE
:103D100078037093790380937A0390937B030C94D8
:103D20009D1A60E070E0CB010C94851E0F931F93E9
:103D300041E050E060E070E08A019B0104C0000FA8
:103D4000111F221F331F8A95D2F7C901B8011F9195
:103D50000F910C94851E0F931F9341E050E060E09B
:103D600070E004C0440F551F661F771F8A95D2F775
:103D70008091780390917903A0917A03B0917B03AD
:103D80008A019B01082B192B2A2B3B2BC901B80157
:103D90001F910F910C94851E0F931F9341E050E0EB
:103DA00060E070E004C0440F551F661F771F8A95BE
:103DB000D2F7CB01BA0160957095809590950091EE
:103DC00078031091790320917A0330917B0360236B
:103DD0007123822393231F910F910C94851E0F93BF
:103DE0001F9341E050E060E070E004C0440F551FB5
:103DF000661F771F8A95D2F7809178039091790397
:103E0000A0917A03B0917B038A019B0108271927AF
:103E10002A273B27C901B8011F910F910C94851ED9
:103E20000F931F93009178031091790320917A03E7
:103E300030917B03602B712B822B932B1F910F9161
:103E40000C94851E0F931F930091780310917903B2
:103E500020917A0330917B03602371238223932383
:103E60001F910F910C94851E0F931F93009178035F
:103E70001091790320917A0330917B036027712799
:103E8000822793271F910F910C94851E0895E92F87
:103E9000EE0FEE0F9E0F890F982F977041E001C033
:103EA000440F9A95EAF786958695869595E0899FC1
:103EB000F0011124E15AFC4F30E020E070E0519114
:103EC000DF011197CB01022E02C0969587950A94C7
:103ED000E2F7817081958527842385278C932F5F56
:103EE0003F4F2530310559F70895E92FEE0FEE0FBA
:103EF0009E0F890F982F977086958695869525E059
:103F0000829FF0011124E15AFC4F50E040E080E034
:103F1000219130E0092E02C0369527950A94E2F7E8
:103F200021703327042E01C0220F0A94EAF7822B56
:103F30004F5F5F4F4530510559F70895BF92CF92BB
:103F4000DF92EF92FF920F931F93CF93DF938C0139
:103F5000C0907803D0907903E0907A03F0907B03CF
:103F600080917C0390917D03A0917E03B0917F03AB
:103F7000C82AD92AEA2AFB2ACFE1D0E0BC2ED701F1
:103F8000C6010C2E04C0B695A795979587950A94FF
:103F9000D2F780FD0EC0219788F7B12C8B2DDF91D1
:103FA000CF911F910F91FF90EF90DF90CF90BF9036
:103FB0000895B8018C2F0E944106019761F3EECF5E
:103FC000CF93DF93EC010E949E1FBE01DF91CF9142
:103FD0000C9441061F93CF93DF93EB01909126033E
:103FE000992331F0CB01DF91CF911F910C94E01F09
:103FF000882379F0CB010E949E1F182F682FCE01D5
:104000000E94471FBE01812FDF91CF911F910C9419
:104010004106CB010E94751F182FF4CF682F8091A5
:104020004C0290914D020C940A22682F80914C0210
:1040300090914D020C940C2280914C0290914D0273
:104040000C940E2280918003859585958595089521
:10405000809180038770089590918003977081E02C
:1040600009F480E0089590919A0392FB222720F9A9
:10407000281751F080FB92F990939A03809199034D
:1040800090919A030C943721089580919A0382FBB2
:10409000882780F991E089270C94332081E00C94E3
:1040A000332080E00C94332080918C03089590910C
:1040B0008C03892B80938C030895809590918C03B9
:1040C000982390938C03089510928C030895809107
:1040D0008B03089590918B03892B80938B03089514
:1040E000809590918B03982390938B030895109261
:1040F0008B03089590918A03892B80938A030895F6
:10410000809590918A03982390938A030895109242
:104110008A03089580918103089508950C948D2059
:1041200090919A0392FD08C090918103981721F015
:10413000809381030C948E200895809181038823BD
:1041400029F01092810380E00C948E200895E09174
:104150004C02F0914D0280918C038083E0914C02DF
:10416000F0914D02808190918B03892B8083E091A7
:104170004C02F0914D02808190918A03892B8083BB
:1041800090918103992381F0E0914C02F0914D02CE
:104190008081892B808380914C0290914D020E94F6
:1041A000C22181110E949D2080914C0290914D026C
:1041B0000C94261608950C94DA2090919A0392FD9F
:1041C00010C098E0899F90011124622B60938003B6
:1041D0000E94AB1E809180038595859585950C94F2
:1041E000DB200C94AB1E1092800380E00C94DB204B
:1041F000909180038095892380938003282F2770D6
:1042000039F4282F082E000C330B9217130621F4D3
:1042100090919A0392FF07C08595859585950E9498
:10422000CC1E0C94F320089580E0089590E080E087
:104230000E94322A21E08A3E9E4F09F020E0822F20
:10424000089582E090E00C94242A83E090E00C949E
:10425000242ACF9384E090E00E94242AC82F82E28F
:1042600090E00E94242A982F8C2FCF910895CF930D
:10427000C92F682F84E090E00E94382A6C2F82E2D8
:1042800090E0CF910C94382AAB01BC018FE090E014
:104290000C944A2AAB01BC0183E190E00C944A2AB9
:1042A00060E070E0CB010C944A2160E070E0CB014B
:1042B0000E9444210C9450216AEE7EEF90E080E051
:1042C0000E94562A60E082E090E00E94382A60E076
:1042D00083E090E00E94382A10927C0310927D03C4
:1042E00010927E0310927F0360E084E090E00E94D1
:1042F000382A60E082E290E00E94382A60E085E09F
:1043000090E00E94382A60E086E090E00E94382A1F
:104310006FEF87E090E00E94382A40E050E0BA0159
:1043200088E090E00E944A2A60E08DE090E00E94E0
:10433000382A40E050E0BA0188E190E00E944A2A21
:1043400060E087E190E00E94382A40E050E0BA0146
:104350008CE190E00E944A2A70E060E080E290E008
:104360000E94562A40E050E0BA0188E190E00E94A5
:104370004A2A0C9455210C945C21682F8EE090E021
:104380000C94382A9C012E5F3F4FAC01485F5F4F71
:1043900080E02417350709F40895F90191919F01F0
:1043A0009923B9F38F5FF5CF662349F0FC0132966C
:1043B00008962191261729F0E817F907D1F780E030
:1043C000089581E008959C01FC0132969FEF80E002
:1043D0004191461751F09F3F19F4411101C0982FA8
:1043E0008F5F8630A9F79F3F09F40895290F311D8B
:1043F00097FD3A95F90162830895FC01329608967B
:104400002191261303C0DF0111971C92E817F907C9
:10441000B9F708950C94E3210C94FD21029626E04F
:10442000FC0111922A95E9F70895089508950C94D6
:1044300016228091E203843049F10E94172280E025
:104440000E94190610928E0388E190E020E40FB6D6
:10445000F894A895809360000FBE2093600083B706
:10446000817F846083BF83B7816083BF78948895A0
:1044700083B78E7F83BF0FB6F894A89580916000B4
:10448000886180936000109260000FBE08950895C7
:10449000CF930E9415220E942A090E944722C0E061
:1044A0008C2F0E945B08811105C0CF5FC830C1F717
:1044B000CF91089581E0FCCF08950C945C220E9476
:1044C000B31A0E941A160E9419060C945D221F92BC
:1044D0001FB61F9211248F939F93AF93BF93809128
:1044E0008E03811113C08091D6039091D703A091C0
:1044F000D803B091D9034196A11DB11D8093D60375
:104500009093D703A093D803B093D903BF91AF91F1
:104510009F918F911F901FBE1F90189582E084BDC0
:1045200093E095BD9AEF97BD80936E0008952FB7E5
:10453000F8948091D6039091D703A091D803B091BD
:10454000D9032FBF08952FB7F8946091D6037091C7
:10455000D7038091D8039091D9032FBF08959C0170
:104560004FB7F8948091D6039091D703A091D803C8
:10457000B091D9034FBF821B930B089578941F927B
:104580001FB61F9211248F939F93AF93BF93809177
:10459000D6039091D703A091D803B091D903019687
:1045A000A11DB11D8093D6039093D703A093D80388
:1045B000B093D903BF91AF919F918F911F901FBE70
:1045C0001F9018951092DA031092DB031092DC030F
:1045D0001092DD030895CF92DF92EF92FF926B016C
:1045E0007C010E94E30981110EC00E94A322C61A19
:1045F000D70AE80AF90AC092DA03D092DB03E09204
:10460000DC03F092DD03FF90EF90DF90CF900895F0
:104610000F931F930E94E309882321F01F910F91AC
:104620000C94A3220E94A3220091DA031091DB03D1
:104630002091DC033091DD03600F711F821F931FF7
:104640001F910F91089587E797E790930108809352
:10465000000888E19AE00FB6F894A895809360006E
:104660000FBE90936000FFCF9093DB028093DA023D
:104670000895809197030895CF93DF9300D00F9210
:10468000CDB7DEB79091E203943019F589837B832F
:104690006A8382E08093E9008FEF9091E800815077
:1046A00095FD06C095ED9A95F1F700008111F5CFC3
:1046B0008091E80085FF0DC050E040E063E070E0CD
:1046C000CE0101960E9453258091E8008E77809359
:1046D000E8000F900F900F90DF91CF910895BC01EB
:1046E00084E00C943C23BC0183E00C943C239C01AB
:1046F00082E08093E9009FEF8091E800915085FD72
:1047000006C085ED8A95F1F700009111F5CF8091F3
:10471000E80085FF0CC050E040E066E070E0C901B1
:104720000E9453258091E8008E778093E8000895D9
:10473000CF93DF93EC0181E08093E9008FEF9091BC
:10474000E800815095FD06C095ED9A95F1F70000BF
:104750008111F5CF8091E80085FF14C050E040E062
:1047600068E070E0CE010E9453258091E8008E77CA
:104770008093E80088E0FE01AFE8B3E001900D927D
:104780008A95E1F7DF91CF9108958091E10381113E
:1047900009C00E94E3260E9440278091E2008460C5
:1047A0008093E20008951092E1030895089508951A
:1047B000089542E061EC81E00E945F2642E261ECF4
:1047C00082E00C945F268091E403833009F45FC09B
:1047D00030F48130C1F1823009F49BC008958A30F1
:1047E00009F487C08B3009F46DC0893009F04EC0E0
:1047F0008091E303813209F049C08091E7039091F1
:10480000E803029708F042C08091E800877F809318
:10481000E8008091E80082FF35C09091F30080911C
:10482000F200029729F48091F1008B7F813021F40E
:104830008091F100809397038091E8008B778093BB
:10484000E8000C9493268091E303813AF9F4809177
:10485000E800877F8093E8008091E7039091E80368
:10486000892B61F468E08FE893E070E00E94A22554
:104870008091E8008B778093E800089560E090E0F5
:1048800080E0F3CF8091E2038111C3CF089580913E
:10489000E303813AD9F78091E7039091E803892BEC
:1048A000A9F78091E800877F8093E8008091E80075
:1048B00080FFFCCF809158028093F1008091E80046
:1048C0008E77BDCF8091E303813201F78091E703BA
:1048D0009091E803892BD1F68091E800877F80933F
:1048E000E8000E9493268091E503809358020C947F
:1048F000B31A8091E303813249F68091E800877F03
:104900008093E8000E9493268091E60380939803A9
:1049100008958091E303813A09F0B8CF8091E800CF
:10492000877F8093E8008091E80080FFFCCF809132
:104930009803C2CF84B7877F84BF0FB6F894A89539
:1049400080916000886180936000109260000FBECB
:1049500080E890E00FB6F894809361009093610036
:104960000FBE0E949E160E94E3260E94402780915F
:10497000E20084608093E20078940E94C9290E943A
:10498000B0168EE492E00E9415168091E203853005
:1049900099F00E94BC160E94AC16F7CF0E94192213
:1049A0008091E003882341F00E944822882321F06F
:1049B0000E943D250E94B31A8091E203853071F375
:1049C0000E945F22E6CF0C94E524292F3327233061
:1049D000310519F168F42130310509F444C0223061
:1049E000310509F445C090E080E030E020E025C0CA
:1049F0002132310549F122323105A9F780E490E0F6
:104A00002AEE34E061157105C1F08BE790E02FE6E6
:104A100034E06130710589F0E6CF99278130910546
:104A200081F0009729F00297F1F6E8EFF3E002C079
:104A3000EEE1F4E0849190E09F01FA01318320835C
:104A40000895EAE0F4E0F6CF89E090E024E334E072
:104A50006115710591F389E090E02DE434E0613057
:104A6000710559F3C0CF82E190E02DE534E0E5CF48
:104A70008BE390E022E234E0E0CF80E189BD82E187
:104A800089BD09B400FEFDCF8091D8008F7D809351
:104A9000D8008091E00082608093E0008091E00087
:104AA00081FDFCCF0895AF92BF92CF92DF92FF922B
:104AB0000F931F93CF93DF936C01EB018A010E9448
:104AC000B226F82E811123C00115110539F0F80125
:104AD00080819181C81BD90BC80ED91EB12CA12C85
:104AE0002097A9F08091E80085FD22C08091E80020
:104AF0008E778093E80001151105A1F0F8018081FF
:104B00009181A80EB91EB182A08285E0F82E8F2D6A
:104B1000DF91CF911F910F91FF90DF90CF90BF90C9
:104B2000AF9008950E94B2268823D1F2F82EEFCFDD
:104B3000F60181916F018093F1002197FFEFAF1A89
:104B4000BF0ACECFFC018091E9039091EA0386175A
:104B50009707A0F06115710529F49091E8009E7700
:104B60009093E80090E06115710551F4911108C02F
:104B70008091E80082FF34C080E00895BC01F2CF4C
:104B80008091E2038823C1F18530C1F18091E80072
:104B900083FD30C08091E80082FDEACF8091E8007B
:104BA00080FFE1CF8091F3002091F200382F611552
:104BB000710519F02830310558F091E028303105A1
:104BC00009F090E02091E8002E772093E800CBCF09
:104BD00081918093F100615071092F5F3F4FE7CFC2
:104BE0008091E203882341F0853041F08091E80014
:104BF00083FFBECF81E0089582E0089583E00895A9
:104C0000FC018091E9039091EA0386179707A0F0D1
:104C10006115710529F48091E8008E778093E80092
:104C200090E06115710551F4911108C08091E80080
:104C300082FF35C080E00895BC01F2CF8091E2038D
:104C40008823C9F18530C9F18091E80083FD31C026
:104C50008091E80082FDEACF8091E80080FFE1CFFB
:104C60008091F3002091F200382F6115710519F041
:104C70002830310558F091E02830310509F090E0F6
:104C80008091E8008E778093E800CBCF8491809369
:104C9000F1003196615071092F5F3F4FE6CF80914F
:104CA000E203882341F0853041F08091E80083FFE2
:104CB000BDCF81E0089582E0089583E00895982FA4
:104CC000973028F08F708093E90081E008959093E9
:104CD000E900242F762F50E0981731F07091EC0006
:104CE0002091ED005091F00021FD02C09F5FE8CFC0
:104CF0003091EB003E7F3093EB003091ED003D7F33
:104D00003093ED003091EB0031603093EB00709305
:104D1000EC002093ED005093F0002091EE0027FD71
:104D2000E5CF80E008958091E30387FF13C0809171
:104D3000E80082FF06C08091E8008B778093E8004E
:104D400004C08091E2038111F2CF08958091E203C3
:104D50008823D9F38091E80080FFF8CF8091E800A4
:104D60008E77ECCF2091E4003091E50095E6A90123
:104D70002091EC00822F817020FF06C08091E80016
:104D800080FF06C080E008952091E80022FD1AC04F
:104D90008091E203882389F0853089F08091EB00CF
:104DA00085FD0FC02091E4003091E50042175307C4
:104DB000F9F29150E1F684E0089582E0089583E0ED
:104DC000089581E008950E9451270E945927E0EE3E
:104DD000F0E0808181608083E8EDF0E080818F7772
:104DE000808319BCA7EDB0E08C918E7F8C9380817D
:104DF0008F7E80831092E10308950F931F93CF93CA
:104E0000DF930E9451270E945927C8EDD0E0888186
:104E10008F77888388818068888388818F7D888365
:104E200019BC1092E2031092DE031092E00310927C
:104E3000DF0300EE10E0F80180818B7F80838881A2
:104E40008160888342E060E080E00E945F26E1EEBE
:104E5000F0E080818E7F8083E2EEF0E080818160EF
:104E60008083808188608083F80180818E7F808349
:104E7000888180618883DF91CF911F910F91089580
:104E8000E8EDF0E080818F7E8083E7EDF0E08081C7
:104E90008160808384E082BF81E08093E1030C9491
:104EA000FD26E8EDF0E080818E7F80831092E200A5
:104EB00008951092DA001092E10008951F920F9267
:104EC0000FB60F9211242F933F934F935F936F93DD
:104ED0007F938F939F93AF93BF93EF93FF938091B3
:104EE000E10082FF0BC08091E20082FF07C0809149
:104EF000E1008B7F8093E1000E94C8298091DA0055
:104F000080FF19C08091D80080FF15C08091DA0021
:104F10008E7F8093DA008091D90080FF96C080E177
:104F200089BD82E189BD09B400FEFDCF81E0809397
:104F3000E2030E94C5238091E10080FF19C08091A7
:104F4000E20080FF15C08091E2008E7F8093E20036
:104F50008091E20080618093E2008091D8008062BD
:104F60008093D80019BC85E08093E2030E94D72388
:104F70008091E10084FF2BC08091E20084FF27C074
:104F800080E189BD82E189BD89B5982F917080FF4C
:104F9000FBCF8091D8008F7D8093D8008091E10075
:104FA0008F7E8093E1008091E2008F7E8093E2000B
:104FB0008091E20081608093E2008091DE0388238B
:104FC00009F449C084E08093E2030E94D8238091D1
:104FD000E10083FF29C08091E20083FF25C080911A
:104FE000E100877F8093E10082E08093E2031092EA
:104FF000DE038091E1008E7F8093E1008091E200EA
:105000008E7F8093E2008091E20080618093E200D5
:1050100042E060E080E00E945F268091F0008860BE
:105020008093F0000E94D623FF91EF91BF91AF9142
:105030009F918F917F916F915F914F913F912F91B0
:105040000F900FBE0F901F90189519BC1092E2039D
:105050000E94D32370CF8091E30087FD93E090936B
:10506000E203B3CF1F920F920FB60F9211242F932A
:105070003F934F935F936F937F938F939F93AF93E0
:10508000BF93CF93DF93EF93FF93D091E900DF704D
:105090008091EC00C82FC17080FDC0E81092E9003B
:1050A0008091F000877F8093F00078940E947628AA
:1050B0001092E9008091F00088608093F000CD2B81
:1050C000CF70C093E900FF91EF91DF91CF91BF9135
:1050D000AF919F918F917F916F915F914F913F9190
:1050E0002F910F900FBE0F901F9018951F93CF9385
:1050F000DF93CDB7DEB7AA970FB6F894DEBF0FBE29
:10510000CDBF83EE93E02091F100FC012193CF010C
:10511000F3E08B3E9F07B9F70E94E3238091E800FC
:1051200083FF1EC18091E3039091E4039A3008F05D
:1051300017C1E92FF0E0EC56F54D0C941E2A80388B
:1051400099F0823809F00CC18091E7038F708730A5
:1051500008F006C18093E9008091EB0085FB882769
:1051600080F91092E90006C08091DF039091E0037E
:10517000911182609091E800977F9093E80080936E
:10518000F1001092F1008091E8008E77E5C088234D
:1051900009F4D3C0823009F0E3C08091E5038111A6
:1051A000D6C08091E7038F702FEF280F263008F0CC
:1051B000D7C08093E9002091EB0020FFC8C0933056
:1051C00031F48091EB0080628093EB00C0C090913D
:1051D000EB0090619093EB0021E030E001C0220FE2
:1051E0008A95EAF72093EA001092EA008091EB009A
:1051F0008860EACF8111B4C01091E5031F778091D8
:10520000E3008078812B8093E3008091E800877F22
:105210008093E8000E9493268091E80080FFFCCFF5
:105220008091E30080688093E30082E0111183E0C5
:105230008093E20395C08058823008F091C080913D
:10524000E5039091E6038C3D23E09207A1F583E00E
:105250008A838AE289834FB7F894DE01139620E0AF
:105260003EE051E2E32FF0E050935700E49120FF3D
:1052700003C0E295EF703F5FEF708E2F90E0EA3051
:10528000C0F0C7968D939D932F5F243159F74FBF80
:105290008091E800877F8093E8006AE270E0CE01A9
:1052A00001960E94A2258091E8008B778093E80008
:1052B00057C0C096E7CF6091E7037091E803AE0155
:1052C0004F5F5F4F0E94E324BC01892B09F448C063
:1052D0009091E800977F9093E80089819A810E94DD
:1052E0000026E1CF8038E1F58091E800877F809348
:1052F000E8008091DE038093F10045CF811130C03A
:105300009091E503923060F58091E800877F80936B
:10531000E8009093DE030E9493268091DE038823A9
:1053200011F084E005C08091E30087FDFACF81E0B1
:105330008093E2030E94D92313C08091E50381305A
:1053400079F481E0933009F080E08093E0031092DB
:10535000E9008091E800877F8093E8000E9493260F
:105360008091E80083FF0AC08091E800877F8093E6
:10537000E8008091EB0080628093EB00AA960FB664
:10538000F894DEBF0FBECDBFDF91CF911F9108957E
:105390000895CF938091E2038823A1F0C091E900A2
:1053A000CF709091EC00892F817090FD80E8C82B20
:1053B0001092E9008091E80083FD0E947628CF706A
:1053C000C093E900CF9108950E94E3261092E20372
:1053D0000895E8EDF0E08081806180838AE18A951C
:1053E000F1F700C08091D90081700895AA1BBB1B02
:1053F00051E107C0AA1FBB1FA617B70710F0A61BD5
:10540000B70B881F991F5A95A9F780959095BC01F5
:10541000CD01089597FB072E16F4009407D077FD71
:1054200009D00E94F62907FC05D03EF4909581959D
:105430009F4F0895709561957F4F0895EE0FFF1F60
:105440000590F491E02D0994F999FECF92BD81BDAC
:10545000F89A992780B50895A6E1B0E044E050E0BD
:105460000C945E2AA8E1B0E042E050E00C945E2A81
:10547000262FF999FECF92BD81BDF89A019700B40D
:10548000021639F01FBA20BD0FB6F894FA9AF99AAD
:105490000FBE08950396272F0E94392A0E94382AAA
:1054A000252F0E94392A242F0C94392A0196272F60
:1054B0000E94392A0C94382ADC01CB01FC01F999AD
:1054C000FECF06C0F2BDE1BDF89A319600B40D9250
:1054D00041505040B8F70895F894FFCF13031B03D1
:1054E00020032503340342032A032F03741874187E
:1054F000CC18CC1818193419A118A1183F19CB19B8
:10550000DA19DA19361AA118A1183F1AC21AC21AE2
:10551000CB1ACB1ACD1ACB1ACB1ACB1AC21AC21A73
:10552000D21ACB1ACB1AD21A9F28C728B029C7285B
:0C553000B029FA281B29B02972297E2915
:10553C00EB12FB120B130000000000000000000037
:10554C00000000002D02EB12FB120B1300000000F8
:10555C00000000000000000000002902EB12FB120A
:10556C000B13000000000000000000000000000011
:10557C002102EB12FB120B130000000000000000D4
:10558C000000000000002502EB12FB120B130000C0
:10559C000000000000000000000000001D02EB12E3
:1055AC00FB120B13000000000000000000000000C4
:1055BC00000019020000F2020000000000000000D0
:1055CC00000000000000000000000000DE020000EF
:1055DC0000000000000000000000000000000000BF
:1055EC00EB12FB120B130000000000000000000087
:1055FC00000000001502EB12FB120B130000000060
:10560C00000000000000000000001102EB12FB1271
:10561C000B13000000000000000000000000000060
:10562C000D0200001B132E130000000000000000F0
:10563C000000000000000802290004EF1E18003CC6
:10564C00000C003B000D003A001400290038004DFE
:10565C0000180027021B002B001A0026021D004A0E
:10566C00007802012808641E140A321E000C000C7B
:10567C000C3236FFFF0204000305040382033923B6
:10568C009823772373236F2301E200E900EA00B526
:10569C0000B600B700CD008301CC008A01920194C2
:1056AC00012102230224022502260227022A02B328
:1056BC0000B4006F00700081828335F591F4923450
:1056CC006697C600000000000100FF010001000009
:1056DC00FFFF0000010001FF00E200E900EA00B555
:1056EC0000B600B700CD008301CC008A0192019472
:1056FC00012102230224022502260227022A02B3D8
:0A570C0000B4006F0070008182837A
:00000001FF
